AuthorID;Author;Date;Content;Attachments;Reactions;
"412323938782150658";"SHossain#0007";"15-Aug-18 03:59 PM";"```
./komodo-cli -ac_name=AT5 getrawmempool
[
  ""008bed88b2dfee149a1798744cb9408b56a6b60d04da5cbc746f643d55e8b500""
]
```";"";"";
"455741312273219595";"jl777c#5810";"15-Aug-18 03:59 PM";"i think it is a timing issue";"";"";
"455741312273219595";"jl777c#5810";"15-Aug-18 04:00 PM";"you did some tx to that address";"";"";
"455741312273219595";"jl777c#5810";"15-Aug-18 04:00 PM";"so now the faucet tx is invalid";"";"";
"455741312273219595";"jl777c#5810";"15-Aug-18 04:00 PM";"but the moment you submitted to mempool it wasnt invalid";"";"";
"455741312273219595";"jl777c#5810";"15-Aug-18 04:00 PM";"i think you need to restart that node";"";"";
"412323938782150658";"SHossain#0007";"15-Aug-18 04:00 PM";"restarting";"";"";
"455741312273219595";"jl777c#5810";"15-Aug-18 04:00 PM";"not sure how easy it is to get into such a situation";"";"";
"412323938782150658";"SHossain#0007";"15-Aug-18 04:01 PM";"```
./komodo-cli -ac_name=AT5 faucetinfo
{
  ""result"": ""success"",
  ""name"": ""Faucet"",
  ""funding"": ""0.00000000""
}
```
on other node, it doesn't see faucet funds";"";"";
"455741312273219595";"jl777c#5810";"15-Aug-18 04:02 PM";"my node has that in the mempool also...";"";"";
"412323938782150658";"SHossain#0007";"15-Aug-18 04:02 PM";"after restart it shows
```
check faucetget txid 008bed88b2dfee149a1798744cb9408b56a6b60d04da5cbc746f643d55e8b500 00/00
faucetget validated
check faucetget txid 008bed88b2dfee149a1798744cb9408b56a6b60d04da5cbc746f643d55e8b500 00/00
faucetget validated
```";"";"";
"455741312273219595";"jl777c#5810";"15-Aug-18 04:03 PM";"if this isnt a one-off situation, i need to rethink the last constraint of unused address";"";"";
"412323938782150658";"SHossain#0007";"15-Aug-18 04:03 PM";"the tx is in my mempool also";"";"";
"412323938782150658";"SHossain#0007";"15-Aug-18 04:04 PM";"now confirmed";"";"";
"455741312273219595";"jl777c#5810";"15-Aug-18 04:04 PM";"somehow it was in th emempool, but when restarted it is processed...";"";"";
"412323938782150658";"SHossain#0007";"15-Aug-18 04:04 PM";"./komodo-cli -ac_name=AT5 faucetinfo
{
  ""result"": ""success"",
  ""name"": ""Faucet"",
  ""funding"": ""9999.89990000""
}";"";"";
"455741312273219595";"jl777c#5810";"15-Aug-18 04:04 PM";"very strange. we need to see if this happens again";"";"";
"412323938782150658";"SHossain#0007";"15-Aug-18 04:04 PM";"faucet has funds now";"";"";
"455741312273219595";"jl777c#5810";"15-Aug-18 04:04 PM";"the funding went to 0 as it was in the mempool";"";"";
"405011811511828481";"Alright#0419";"15-Aug-18 04:04 PM";"```
CC Eval EVAL_FAUCET Invalid: mismatched inputs != outputs + COIN + txfee spending tx 6bf880a14e46564390486e444d671736ca7cad1bf12718d3c056c41a13b0c4f5
inputs 1000000000000 vs outputs 999989990000
faucetget invalid amount
CC Eval EVAL_FAUCET Invalid: mismatched inputs != outputs + COIN + txfee spending tx 6bf880a14e46564390486e444d671736ca7cad1bf12718d3c056c41a13b0c4f5
inputs 1000000000000 vs outputs 999989990000
faucetget invalid amount
CC Eval EVAL_FAUCET Invalid: mismatched inputs != outputs + COIN + txfee spending tx 6bf880a14e46564390486e444d671736ca7cad1bf12718d3c056c41a13b0c4f5
inputs 1000000000000 vs outputs 999989990000
faucetget invalid amount
CC Eval EVAL_FAUCET Invalid: mismatched inputs != outputs + COIN + txfee spending tx 6bf880a14e46564390486e444d671736ca7cad1bf12718d3c056c41a13b0c4f5
inputs 1000000000000 vs outputs 999989990000
faucetget invalid amount
CC Eval EVAL_FAUCET Invalid: mismatched inputs != outputs + COIN + txfee spending tx 6bf880a14e46564390486e444d671736ca7cad1bf12718d3c056c41a13b0c4f5
inputs 1000000000000 vs outputs 999989990000
faucetget invalid amount
CC Eval EVAL_FAUCET Invalid: mismatched inputs != outputs + COIN + txfee spending tx 6bf880a14e46564390486e444d671736ca7cad1bf12718d3c056c41a13b0c4f
```";"";"";
"405011811511828481";"Alright#0419";"15-Aug-18 04:04 PM";"not my tx";"";"";
"455741312273219595";"jl777c#5810";"15-Aug-18 04:05 PM";"similar to the dice funding disappearing";"";"";
"412323938782150658";"SHossain#0007";"15-Aug-18 04:05 PM";"tx went back to mempool and faucetfund is 0 again
```
./komodo-cli -ac_name=AT5 faucetinfo
{
  ""result"": ""success"",
  ""name"": ""Faucet"",
  ""funding"": ""0.00000000""
}
lpx@dex:~/komodo/src$ ./komodo-cli -ac_name=AT5 getrawmempool
[
  ""008bed88b2dfee149a1798744cb9408b56a6b60d04da5cbc746f643d55e8b500""
]
```";"";"";
"455741312273219595";"jl777c#5810";"15-Aug-18 04:06 PM";"I think I know what is going on";"";"";
"412323938782150658";"SHossain#0007";"15-Aug-18 04:07 PM";"glad i tested the fauce before starting dice on new chain ðŸ˜ƒ";"";"";
"405011811511828481";"Alright#0419";"15-Aug-18 04:07 PM";"I was able to lock then unlock 1000 coins from this plan, but now I am unable to lock any. 
```
{
  ""result"": ""success"",
  ""fundingtxid"": ""977f375ec1d16ce17a63316e741fed5910099e1d460f5d2645ad7d1de67ad490"",
  ""name"": ""0time"",
  ""sbits"": 435627324464,
  ""APR"": ""20.00000000"",
  ""minseconds"": 0,
  ""maxseconds"": 86400,
  ""mindeposit"": ""1.00000000"",
  ""funding"": ""999.99956311"",
  ""locked"": ""0.00000000""
}
```
```
./komodo-cli -ac_name=AT5 rewardslock 0time 977f375ec1d16ce17a63316e741fed5910099e1d460f5d2645ad7d1de67ad490 1000
{
  ""error"": ""couldnt create rewards lock transaction""
}
```
`cant find rewards inputs`";"";"";
"422858760898215937";"siu - Chainmakers#3920";"15-Aug-18 04:07 PM";"who wants some WEED? :trollface:";"";"";
"422858760898215937";"siu - Chainmakers#3920";"15-Aug-18 04:08 PM";"```{
    ""result"": {
        ""result"": ""success"",
        ""tokenid"": ""94b5dd0c386916b8e09c1f66bdf7a66f9fe43561c0876578bceaa9b5bb106cba"",
        ""owner"": ""0225583e18a48116c4c9571f530240f22affe00f95804f1947d59fbc7b825763f6"",
        ""name"": ""WEED"",
        ""supply"": 420000000,
        ""description"": ""pass the dutchy to the left hand side""
    },
    ""error"": null,
    ""id"": null
}```";"";"ðŸ˜‚ (1)";
"455741312273219595";"jl777c#5810";"15-Aug-18 04:08 PM";"pushed fix for mempool zombie";"";"";
"455741312273219595";"jl777c#5810";"15-Aug-18 04:09 PM";"it shouldnt change consensus";"";"";
"412323938782150658";"SHossain#0007";"15-Aug-18 04:09 PM";"updating";"";"";
"405011811511828481";"Alright#0419";"15-Aug-18 04:09 PM";"any amount under 1000 I get 
```
cant find enough inputs 999.99956311 note enough for 999.00000000
cant find rewards inputs
```
in the stdout 
1000 or above I just get 
```
cant find rewards inputs
```";"";"";
"455741312273219595";"jl777c#5810";"15-Aug-18 04:10 PM";"investigating";"";"";
"422858760898215937";"siu - Chainmakers#3920";"15-Aug-18 04:11 PM";"updating";"";"";
"412323938782150658";"SHossain#0007";"15-Aug-18 04:11 PM";"superfast faucetget
```
start at 1534349476
found valid txid after 3730 iterations 1534349477
```";"";"";
"455741312273219595";"jl777c#5810";"15-Aug-18 04:13 PM";"superlucke: found valid txid after 3730 iterations 1534349477";"";"";
"455741312273219595";"jl777c#5810";"15-Aug-18 04:13 PM";"@Alright it checks for enough rewards funding to match the deposit, this is arbitrary value but seems reaosnable";"";"";
"455741312273219595";"jl777c#5810";"15-Aug-18 04:14 PM";"and are you sure it has enough normal inputs for 1000 ?";"";"";
"405011811511828481";"Alright#0419";"15-Aug-18 04:14 PM";"```
cant find enough inputs 999.99956311 note enough for 2.00000000
cant find rewards inputs
```";"";"";
"405011811511828481";"Alright#0419";"15-Aug-18 04:14 PM";"that's trying to lock 2 coins when the plan has 999 coins funding";"";"";
"455741312273219595";"jl777c#5810";"15-Aug-18 04:14 PM";"how much do you have in normal inputs?";"";"";
"405011811511828481";"Alright#0419";"15-Aug-18 04:15 PM";"didn't import the key ðŸ˜ sorry";"";"";
"455741312273219595";"jl777c#5810";"15-Aug-18 04:16 PM";"sometimes the error messages are correct";"";"";
"405011811511828481";"Alright#0419";"15-Aug-18 04:16 PM";"ðŸ˜ƒ";"";"";
"455741312273219595";"jl777c#5810";"15-Aug-18 04:17 PM";"added prints to make it easier to remember";"";"";
"412323938782150658";"SHossain#0007";"15-Aug-18 04:18 PM";"who flooded the mempool i wonder";"";"";
"455741312273219595";"jl777c#5810";"15-Aug-18 04:18 PM";"no needto update just for this if you have imported the privkey";"";"";
"405011811511828481";"Alright#0419";"15-Aug-18 04:18 PM";"locking coins";"";"";
"412323938782150658";"SHossain#0007";"15-Aug-18 04:18 PM";"i was waiting for a faucetget tx to confirm";"";"";
"412323938782150658";"SHossain#0007";"15-Aug-18 04:19 PM";"```
./komodo-cli -ac_name=AT5 sendrawtransaction 0100000001f5c4b0131ac456c0d31827f11bad7cca3617674d446e48904356464ea180f86b000000007b4c79a276a072a26ba067a565802103682b255c40d0cde8faee381a1a50bbb89980ff24539cb8518e294d3a63cefe128140b217f1b83cdccfcd7aba193123a7144dbacd73783205bad7f73f0e31269ad164308e804a9d129bd7fdd73b47642dafbb9cc6cad95f406853ed7bc7baf6456a4aa100af038001e4a10001ffffffff0370520cd4e8000000302ea22c8020e029c511da55523565835887e412e5a0c9b920801b007000df45e545f25028248103120c008203000401cc809698000000000023210304b1f0ba82cb8e064a32e093e2319ff6f886523d4c910204169353529c7669a6ac00000000000000002a6a28e447210304b1f0ba82cb8e064a32e093e2319ff6f886523d4c910204169353529c7669a6920e000000000000
check faucetget txid 001d49dd75c6af0aff5983506e6daa6ae5b0d30101687cc22771c432e074be00 00/00
faucetget validated
check faucetget txid 001d49dd75c6af0aff5983506e6daa6ae5b0d30101687cc22771c432e074be00 00/00
faucetget validated
001d49dd75c6af0aff5983506e6daa6ae5b0d30101687cc22771c432e074be00
```";"";"";
"455741312273219595";"jl777c#5810";"15-Aug-18 04:20 PM";"it isnt going back into mempool for me anymore";"";"";
"455741312273219595";"jl777c#5810";"15-Aug-18 04:20 PM";"but maybe if you do another faucetget it will. need to solve it more properly";"";"";
"412323938782150658";"SHossain#0007";"15-Aug-18 04:20 PM";"this is a new faucetget on a different node";"";"";
"412323938782150658";"SHossain#0007";"15-Aug-18 04:20 PM";"tx cleared from mempool but didn't come to my account";"";"";
"412323938782150658";"SHossain#0007";"15-Aug-18 04:20 PM";"./komodo-cli -ac_name=AT5 faucetinfo
{
  ""result"": ""success"",
  ""name"": ""Faucet"",
  ""funding"": ""9999.89990000""
}";"";"";
"455741312273219595";"jl777c#5810";"15-Aug-18 04:21 PM";"where did the faucetget 0.1 coins go?";"";"";
"412323938782150658";"SHossain#0007";"15-Aug-18 04:21 PM";"no idea";"";"";
"412323938782150658";"SHossain#0007";"15-Aug-18 04:22 PM";"```
./komodo-cli -ac_name=AT5 faucetget
start at 1534349476
found valid txid after 3730 iterations 1534349477
{
  ""result"": ""success"",
  ""hex"": ""0100000001f5c4b0131ac456c0d31827f11bad7cca3617674d446e48904356464ea180f86b000000007b4c79a276a072a26ba067a565802103682b255c40d0cde8faee381a1a50bbb89980ff24539cb8518e294d3a63cefe128140b217f1b83cdccfcd7aba193123a7144dbacd73783205bad7f73f0e31269ad164308e804a9d129bd7fdd73b47642dafbb9cc6cad95f406853ed7bc7baf6456a4aa100af038001e4a10001ffffffff0370520cd4e8000000302ea22c8020e029c511da55523565835887e412e5a0c9b920801b007000df45e545f25028248103120c008203000401cc809698000000000023210304b1f0ba82cb8e064a32e093e2319ff6f886523d4c910204169353529c7669a6ac00000000000000002a6a28e447210304b1f0ba82cb8e064a32e093e2319ff6f886523d4c910204169353529c7669a6920e000000000000""
}
```";"";"";
"455741312273219595";"jl777c#5810";"15-Aug-18 04:22 PM";"RRFHykmhREKvJi6gRdccNbKt7572QaDgjZ is your address?";"";"";
"412323938782150658";"SHossain#0007";"15-Aug-18 04:22 PM";"yes";"";"";
"455741312273219595";"jl777c#5810";"15-Aug-18 04:22 PM";"ismine: true?";"";"";
"412323938782150658";"SHossain#0007";"15-Aug-18 04:22 PM";"yes";"";"";
"455741312273219595";"jl777c#5810";"15-Aug-18 04:22 PM";"what does addressbalance return?";"";"";
"455741312273219595";"jl777c#5810";"15-Aug-18 04:22 PM";"or listunspent";"";"";
"412323938782150658";"SHossain#0007";"15-Aug-18 04:22 PM";"```
./komodo-cli -ac_name=AT5 validateaddress RRFHykmhREKvJi6gRdccNbKt7572QaDgjZ
{
  ""isvalid"": true,
  ""address"": ""RRFHykmhREKvJi6gRdccNbKt7572QaDgjZ"",
  ""scriptPubKey"": ""76a914af261b339b1c79d808bc066be5201eb990d02a9e88ac"",
  ""segid"": 2,
  ""ismine"": true,
  ""iswatchonly"": false,
  ""isscript"": false,
  ""pubkey"": ""0304b1f0ba82cb8e064a32e093e2319ff6f886523d4c910204169353529c7669a6"",
  ""iscompressed"": true,
  ""account"": """"
}
```";"";"";
"412323938782150658";"SHossain#0007";"15-Aug-18 04:24 PM";"```
./komodo-cli -ac_name=AT5 listunspent
[
  {
    ""txid"": ""00ef167e1ca3182d504e8b8fa52fbaa86a2c71cc710095e7ae3afb5b7d54a800"",
    ""vout"": 1,
    ""generated"": false,
    ""address"": ""RRFHykmhREKvJi6gRdccNbKt7572QaDgjZ"",
    ""account"": """",
    ""scriptPubKey"": ""210304b1f0ba82cb8e064a32e093e2319ff6f886523d4c910204169353529c7669a6ac"",
    ""amount"": 0.10000000,
    ""confirmations"": 1,
    ""spendable"": true
  }
]
```
i did another faucetget tx after the first one and listunspent shows details of 2nd one and only showing balance for 1 faucet claim";"";"";
"405011811511828481";"Alright#0419";"15-Aug-18 04:24 PM";"spending rewardsunlock change from mempool works";"";"";
"455741312273219595";"jl777c#5810";"15-Aug-18 04:25 PM";"were they both in the mempool at the same time for the faucet? if so I think I can prevent this";"";"";
"455741312273219595";"jl777c#5810";"15-Aug-18 04:25 PM";"glad the change spending works!";"";"";
"412323938782150658";"SHossain#0007";"15-Aug-18 04:25 PM";"they weren't in the mempool at the the same time";"";"";
"412323938782150658";"SHossain#0007";"15-Aug-18 04:25 PM";"after the first one cleared and i didn't see balance, i initiated the 2nd";"";"";
"455741312273219595";"jl777c#5810";"15-Aug-18 04:25 PM";"resync and see what happens, you shouldnt just lose a utxo";"";"";
"455741312273219595";"jl777c#5810";"15-Aug-18 04:26 PM";"but I think it could end up with an error...";"";"";
"412323938782150658";"SHossain#0007";"15-Aug-18 04:27 PM";"faucetinfo balance shows only 2 tx left out of it total, not 3.
```
./komodo-cli -ac_name=AT5 faucetinfo
{
  ""result"": ""success"",
  ""name"": ""Faucet"",
  ""funding"": ""9999.79980000""
}
```";"";"";
"412323938782150658";"SHossain#0007";"15-Aug-18 04:27 PM";"1 tx missing";"";"";
"405011811511828481";"Alright#0419";"15-Aug-18 04:27 PM";"@SHossain can you run `./komodo-cli -ac_name=AT5 rewardsunlock 0time 977f375ec1d16ce17a63316e741fed5910099e1d460f5d2645ad7d1de67ad490` not sure if I just broke my node's wallet or what";"";"";
"412323938782150658";"SHossain#0007";"15-Aug-18 04:28 PM";"i'll resync";"";"";
"412323938782150658";"SHossain#0007";"15-Aug-18 04:28 PM";"@Alright 
```
./komodo-cli -ac_name=AT5 rewardsunlock 0time 977f375ec1d16ce17a63316e741fed5910099e1d460f5d2645ad7d1de67ad490
APR 20.00000000 minseconds.0 maxseconds.86400 mindeposit 1.00000000
maxseconds.86400 (L) 2.00000000 2.00000000
minseconds 0 maxseconds 86400
duration 641 (1534350424 - 1534349783) numblocks 15 (135 - 120)
amount 2.00000000 4000000000.00000000 126 -> duration.641 reward 0.00000813 vals 0.00004065 0.08130000
amount 2.00000000 -> reward 0.00000813
{
  ""error"": ""couldnt create rewards unlock transaction""
}
```";"";"";
"405011811511828481";"Alright#0419";"15-Aug-18 04:28 PM";"I unlocked a lot of `rewardslock`s in the same block but then eventually got that ^";"";"";
"405011811511828481";"Alright#0419";"15-Aug-18 04:29 PM";"did 194 `rewardsunlock`s in a single block";"";"";
"412323938782150658";"SHossain#0007";"15-Aug-18 04:29 PM";"after full resync balane is `""balance"": 0.10000000,`";"";"";
"412323938782150658";"SHossain#0007";"15-Aug-18 04:30 PM";"which accounts for only 1 tx";"";"";
"405011811511828481";"Alright#0419";"15-Aug-18 04:30 PM";"seems to have messed up being able to do any more `rewardsunlock`s ðŸ¤”";"";"";
"405011811511828481";"Alright#0419";"15-Aug-18 04:30 PM";"Still have a couple hundred `rewardlocks` seemingly stuck";"";"";
"405011811511828481";"Alright#0419";"15-Aug-18 04:31 PM";"```
APR 20.00000000 minseconds.0 maxseconds.86400 mindeposit 1.00000000
maxseconds.86400 (L) 2.00000000 2.00000000
minseconds 0 maxseconds 86400
duration 861 (1534350644 - 1534349783) numblocks 24 (144 - 120)
amount 2.00000000 4000000000.00000000 126 -> duration.861 reward 0.00001092 vals 0.00005460 0.10920000
amount 2.00000000 -> reward 0.00001092
```";"";"";
"412323938782150658";"SHossain#0007";"15-Aug-18 04:32 PM";"@Alright are you mining with any node?";"";"";
"405011811511828481";"Alright#0419";"15-Aug-18 04:32 PM";"just one";"";"";
"412323938782150658";"SHossain#0007";"15-Aug-18 04:34 PM";"ok. i have one too";"";"";
"412323938782150658";"SHossain#0007";"15-Aug-18 04:34 PM";"mined few blocks with the 3rd one and now i have enough funds";"";"";
"422858760898215937";"siu - Chainmakers#3920";"15-Aug-18 04:38 PM";"no one wants some weed?? ðŸ˜¦";"";"";
"412323938782150658";"SHossain#0007";"15-Aug-18 04:40 PM";"what is that? token?";"";"";
"412323938782150658";"SHossain#0007";"15-Aug-18 04:40 PM";"send some on my way (don't tell anyone ðŸ˜› )";"";"";
"405011811511828481";"Alright#0419";"15-Aug-18 04:40 PM";"will be back in ~2 hours";"";"";
"422858760898215937";"siu - Chainmakers#3920";"15-Aug-18 04:42 PM";"```{
    ""result"": [
        {
            ""funcid"": ""s"",
            ""txid"": ""aa73c027fd44739df44aef7fbd4f471dbfe8fa5bb0bcdd220f9ca32844c7e0bf"",
            ""vout"": 0,
            ""amount"": ""1000"",
            ""askamount"": ""1000"",
            ""origaddress"": ""RLSgpvHqCYpkuHmSESZHqoDD2ssZrVtu1m"",
            ""tokenid"": ""94b5dd0c386916b8e09c1f66bdf7a66f9fe43561c0876578bceaa9b5bb106cba"",
            ""totalrequired"": ""4200.00000000"",
            ""price"": ""4.20000000""
        }
    ],
    ""error"": null,
    ""id"": null
}```";"";"";
"422858760898215937";"siu - Chainmakers#3920";"15-Aug-18 04:42 PM";"ðŸ˜‚";"";"";
"422858760898215937";"siu - Chainmakers#3920";"15-Aug-18 04:42 PM";"i wont say anything about you buying some WEED";"";"";
"422858760898215937";"siu - Chainmakers#3920";"15-Aug-18 04:44 PM";"seems like some help mining is needed";"";"";
"412323938782150658";"SHossain#0007";"15-Aug-18 04:44 PM";"i'm mining with 2 nodes now";"";"";
"412323938782150658";"SHossain#0007";"15-Aug-18 04:44 PM";"can increase threads in my local node";"";"";
"272003866906722306";"TonyL#3577";"15-Aug-18 04:44 PM";"```./komodo-cli -ac_name=AT5 faucetget

{
  ""result"": ""success"",
  ""hex"": ""010000000100fb98f71ad5c12783a636c4ffdbad12e0994161fe2324df386c3c651f990400000000007b4c79a276a072a26ba067a565802103682b255c40d0cde8faee381a1a50bbb89980ff24539cb8518e294d3a63cefe128140a7f8d5341aa1a4ae286926ce54c88f350c1f0d02442e19e7958dbb7924e5f38f69dbfceb5885a2eb53c804ced85bbd3c9e317a890911415422a0867654dfa06aa100af038001e4a10001ffffffff03c01942d2e8000000302ea22c8020e029c511da55523565835887e412e5a0c9b920801b007000df45e545f25028248103120c008203000401cc80969800000000002321023049603997216a25787312df4dab5a2699fb07115032b128ed68c1d53c9866f8ac00000000000000002a6a28e44721023049603997216a25787312df4dab5a2699fb07115032b128ed68c1d53c9866f82be5010000000000""
}
```
What I have to do next to get coins into the balance?";"";"";
