==============================================================
Guild: Komodo
Channel: cc-general
Topic: Dev Docs: https://developers.komodoplatform.com | Test plan: https://docs.google.com/spreadsheets/d/1l0dWEPcrv9zE11_TD-XrX_HIYV0VLpadCJN6hvaZERc/edit#gid=211514340
https://medium.com/@jameslee777/how-to-implement-finite-state-machines-into-a-cc-8dfeadccbcad
https://github.com/dimxy/komodo/wiki/Designing-RPC-for-FSM-CC
Messages: 100
Range: before 05-Dec-19 12:00 AM
==============================================================

[29-Aug-18 12:47 PM] siu - Chainmakers#3920
sure,no problem. We can later work on taking it further.

[29-Aug-18 12:47 PM] grewalsatinder#9653
agree

[29-Aug-18 01:00 PM] siu - Chainmakers#3920
i just had an idea of how to use tokens and oracles.

[29-Aug-18 01:00 PM] siu - Chainmakers#3920
for example a BTC value based token could be done.

[29-Aug-18 01:01 PM] siu - Chainmakers#3920
people lock 100btc in an address and the token can use oracles to follow btc market value of those tokens based on the price of btc

[29-Aug-18 01:01 PM] siu - Chainmakers#3920
a decentralized BTC etf or something similar

[29-Aug-18 01:02 PM] siu - Chainmakers#3920
mutual fund of sorts.

[29-Aug-18 01:04 PM] jl777c#5810
yes, i had the similar idea

[29-Aug-18 01:09 PM] siu - Chainmakers#3920
that way a shorting token could be done too

[29-Aug-18 01:09 PM] siu - Chainmakers#3920
just create a token to track the inverse value of that other btc fund.

[29-Aug-18 01:13 PM] siu - Chainmakers#3920
```{
    "result": {
        "result": "success",
        "tokenid": "b2be0097c0c5597501ab1652618f37aa35573acf7fc83eaa993ad1d14147a1fc",
        "owner": "02bc4c43e24873cf223bee487d78605ec631380940713c6779963018ec711f5dde",
        "name": "BTCF",
        "supply": 21000000,
        "description": "Bitcoin Fund, a decentralized Smart contract enforced fund for tracking bitcoin price. This fund will hold X quantity of bitcoin in a locked address. The token generated will track the value of the bitcoins locked in the address using oracle smart contracts to track global average of bitcoin price."
    },
    "error": null,
    "id": null
}```

[29-Aug-18 01:13 PM] jl777c#5810
yes, bitmex can be done, but need the foundational CC in place first

[29-Aug-18 01:20 PM] siu - Chainmakers#3920
which is the oracle?

[29-Aug-18 01:20 PM] jl777c#5810
external data -> blockchain

[29-Aug-18 01:22 PM] siu - Chainmakers#3920
that is some big milestone

[29-Aug-18 01:23 PM] grewalsatinder#9653
I guess with oracles activated the potential value will 10x more than smart contract enabled chain, which is already 10x of current in my views :abusedsmily:

[29-Aug-18 01:26 PM] siu - Chainmakers#3920
we need a billion dollar investment on KMD.... :p

[29-Aug-18 01:27 PM] siu - Chainmakers#3920
if btc is https and zcash is https then kmd cc contracts are like PHP

[29-Aug-18 01:27 PM] siu - Chainmakers#3920
is this a correct assertion?

[29-Aug-18 01:33 PM] jorian#4555
btc is silver, zcash is gold then kmd is platinum :p

[29-Aug-18 01:33 PM] jorian#4555
https vs php is not a real comparison :p

[29-Aug-18 01:35 PM] siu - Chainmakers#3920
lol

[29-Aug-18 01:35 PM] siu - Chainmakers#3920
oh well

[29-Aug-18 01:41 PM] jl777c#5810
mapping currencies to protocols and language, this is like comparing mammals to reptiles to chopsticks

{Reactions}
 

[29-Aug-18 01:44 PM] siu - Chainmakers#3920
cc contracts are not a currency

[29-Aug-18 02:36 PM] dukeleto#7326
@TonyL can you show me a use of `getspentinfo` from the CLI that works?

[30-Aug-18 03:27 AM] TonyL#3577
@dukeleto ```./komodo-cli -ac_name=AT7 getspentinfo '{"txid": "e343ce51cbc0518651fb101bf0ae09db4e18ce2d5f25c82db1dbde1938fcb561", "index": 0}'```

[30-Aug-18 12:43 PM] TonyL#3577
@dukeleto 
Just started to write some new tests for reward CC.  I wonder if we have to set some length check for reward plan name?
I saw your implementation for dice:
```#define PLAN_NAME_MAX   8
#define VALID_PLAN_NAME(x)  (strlen(x) <= PLAN_NAME_MAX)```

8 might be to small for this one since there is no description field. Is there some logic which making non reasonable names > 8 chars as in dice plans? (i'm sank in C code lol)

[30-Aug-18 03:51 PM] dukeleto#7326
@TonyL that VALID_PLAN_NAME should go into a header file where all CC stuff can access it

[30-Aug-18 03:51 PM] dukeleto#7326
@TonyL plan names are actually constrained to 8 chars, that data is stored in transactions as 1 byte, so it can't be larger

[30-Aug-18 03:52 PM] dukeleto#7326
@TonyL and I don't quite understand what you mean by ` Is there some logic which making non reasonable names > 8 chars as in dice plans?`

[30-Aug-18 11:45 PM] TonyL#3577
@dukeleto It's in rpcwallet.cpp atm but using only for dice plan name validation.
I meant: is 1 byte limitation same for dice and rewards plans names?
Because for token for example there is 32 chars name limitation.

[31-Aug-18 01:08 AM] dukeleto#7326
token names are different than plan names

[31-Aug-18 01:09 AM] dukeleto#7326
plan names, in all CC's, can be at most 8chars, because they are stored as 1 byte in op_return data

[31-Aug-18 01:09 AM] dukeleto#7326
token names can be 32 chars and descriptions 4096 chars

[31-Aug-18 03:25 AM] TonyL#3577
@dukeleto  Thanks, so we have to set limitation for rewards plan as well.

[31-Aug-18 06:57 AM] jl777c#5810
it is stored in sbits, uint64_t

[31-Aug-18 10:02 AM] TonyL#3577
@dukeleto I've added same validation for rewards CC (compiled and tested): https://github.com/tonymorony/komodo/commit/bad5d1c3bde49ab14d8436d040020ba340d147b3
If it's ok I'll add it to my next PR with rewards tests

{Embed}
https://github.com/tonymorony/komodo/commit/bad5d1c3bde49ab14d8436d040020ba340d147b3
Validate plan name for Rewards CC 路 tonymorony/komodo@bad5d1c
https://avatars3.githubusercontent.com/u/24797699?s=200&v=4

[31-Aug-18 12:41 PM] jl777c#5810
I dont have it actually doing anything other than creating a channel and some info calls, but channels CC rpc set is mostly set:
channelsaddress destpubkey
channelscollect paytxid origtxid n amount
channelsinfo
channelsopen destpubkey numpayments payment
channelspayment prevtxid origtxid n amount
channelsrefund stoptxid origtxid
channelsstop destpubkey origtxid

[31-Aug-18 01:17 PM] siu - Chainmakers#3920
that is in FSM?

[31-Aug-18 01:17 PM] siu - Chainmakers#3920
can it be tested?

[31-Aug-18 02:25 PM] siu - Chainmakers#3920
anyone here to test channels?

[31-Aug-18 02:30 PM] siu - Chainmakers#3920
im confused on how it should work

[31-Aug-18 02:31 PM] siu - Chainmakers#3920
opened a channel ```{
    "method":"channelsopen",
"params": ["02bc4c43e24873cf223bee487d78605ec631380940713c6779963018ec711f5dde","2","1"]
}```

[31-Aug-18 02:31 PM] siu - Chainmakers#3920
```{
    "method":"sendrawtransaction",
"params": ["0100000001fca14741d1d13a99aa3ec87fcf3a5735aa378f615216ab017559c5c09700beb20200000049483045022100d8fd252501961f707dbd5bfd74e0355b9c09599248f044ad176f040573a0d4e002200b7b7c304410b0f8bffbd50c71d1ba3e47725b9bcf651a854106deab4e8060d401ffffffff050200000000000000302ea22c8020e5dd27eb50c57d2775708000d01d1d808138f585b3c49684f81e6b0adb67f66781031210008203000401cc1027000000000000302ea22c8020e1c3391369695ca664ea0a37b7df5b3d501aafcaa4c8fac6d8906391392953f08103120c008203000401cc1027000000000000302ea22c8020e1c3391369695ca664ea0a37b7df5b3d501aafcaa4c8fac6d8906391392953f08103120c008203000401cc6e97593a00000000232102bc4c43e24873cf223bee487d78605ec631380940713c6779963018ec711f5ddeac0000000000000000756a4c72eb4f2102bc4c43e24873cf223bee487d78605ec631380940713c6779963018ec711f5dde2102bc4c43e24873cf223bee487d78605ec631380940713c6779963018ec711f5dde020000000100000000000000d3fcf3c5809ad486207ec5e663f8da7cff1dfc3f36d9893a1f50bbe3195fe36200000000"]
}
```

[31-Aug-18 02:31 PM] siu - Chainmakers#3920
got his txid: ```{
    "result": "56bf4bdba9852fe24883a38a35b2d2d963544f327ef14554651825619ebfa389",
    "error": null,
    "id": null
}```

[31-Aug-18 02:31 PM] siu - Chainmakers#3920
now what?

[31-Aug-18 02:43 PM] jl777c#5810
"I dont have it actually doing anything other than creating a channel and some info calls"

[31-Aug-18 02:44 PM] jl777c#5810
what would you expect to happen?

[31-Aug-18 02:44 PM] jl777c#5810
channelsinfo and channelsaddress is about it

[31-Aug-18 02:44 PM] jl777c#5810
for now

[31-Aug-18 02:47 PM] dukeleto#7326
i can start writing tests for channel stuff

[31-Aug-18 02:50 PM] jl777c#5810
dont start until all the other CC are done. The rpc calls are still subject to some changes, especially the parameters

[31-Aug-18 02:50 PM] jl777c#5810
that being said, I think having the rpc calls listed allows to start thinking about how to test them

[31-Aug-18 02:50 PM] jl777c#5810
also, feel free to ask questions as to what the calls do

[31-Aug-18 02:52 PM] dukeleto#7326
@jl777c you are right, I should concentrate on the 4 main ones. I have no idea exactly how close to "100% coverage of all 4 main CC rpcs" but my guess is somewhere near 50%

[31-Aug-18 02:57 PM] siu - Chainmakers#3920
i already did the insomnia setup for the calls.

[01-Sep-18 08:08 AM] TonyL#3577
https://github.com/jl777/komodo/pull/858 some work around rewards CC
@jl777c @dukeleto rewrote current rewards tests (there was misinterpretation of  some of this CC methods) + added some new

{Embed}
https://github.com/jl777/komodo/pull/858
Added more rewards CC tests by tonymorony 路 Pull Request #858 路 ...
fixed existing tests (were very strange things like an attempt to call funds adding transaction instead of fundslock transaction, or calling some methods without add funding txid instead of funding...
https://avatars1.githubusercontent.com/u/24797699?s=400&v=4

[01-Sep-18 08:16 AM] TonyL#3577
@dukeleto you named and calling `rewardsaddfunding` txid as `fundingtxid` but  `fundingtxid`  is a `rewardscreatefunding` txid

[01-Sep-18 08:17 AM] TonyL#3577
`rewardsaddfunding` just adding more rewards payouts funds to plan

[01-Sep-18 08:18 AM] dukeleto#7326
@TonyL awesome, nice work 

{Reactions}
 (2) 

[01-Sep-18 08:21 AM] TonyL#3577
@dukeleto  Thanks! 
Thinking now how to test properly rewards unlock :/ looks like only manual way is good for it since `rewards amount` should be > than `tx fee` and if add timeout before claiming - auto-tests will take to much time

[02-Sep-18 02:28 PM] TonyL#3577
@grewalsatinder https://github.com/KomodoPlatform/Mastering_CryptoConditions/pull/3 please merge when you'll have a time. There is a mentioning of Russian translation in your ReadMe now, so I'll try to speedup 

{Embed}
https://github.com/KomodoPlatform/Mastering_CryptoConditions/pull/3
Translated first 3 chapters by tonymorony 路 Pull Request #3 路 Ko...
https://avatars1.githubusercontent.com/u/24797699?s=400&v=4

[02-Sep-18 02:30 PM] grewalsatinder#9653
merged. thanks @TonyL 

{Reactions}
 

[02-Sep-18 03:38 PM] jl777c#5810 (pinned)
implemented oracles CC (without validation yet) and still some bugs, but I have the rpc interface mostly done:
oraclesaddress [pubkey]
oraclescreate name description format
oraclesdata oracletxid hexstr
oraclesinfo oracletxid
oracleslist
oraclesregister oracletxid datafee
oraclessubscribe oracletxid publisher datafee

[02-Sep-18 03:39 PM] jl777c#5810
I ended up using the oracle CC to allow people to create data subscription services

[02-Sep-18 03:40 PM] jl777c#5810
anybody can create a new oracle data description, and this txid is used for most of the other rpc calls.
given an oracletxid, a pubkey will register as a data provider with a datafee for each data post. I guess I need to allow a data provider to make a post without payment, so they can develop their own reputation.

[02-Sep-18 03:42 PM] jl777c#5810
given a data provider, anybody can then pay them to provide data for everybody else. this allows the data provider to post data and get paid the datafee per post. Likely this CC can support an entire data sub-economy, but there is no point to point data subscription that is directly supported. However, even this is possible by having the data that is posted being encrypted to the subscriber. in this case, you need to create a different oracletxid per subscriber

[02-Sep-18 03:44 PM] jl777c#5810
this rpc interface is pretty much set, just might change due to bugs found. It will act as a data source for higher level CC, like prices and pegs CC

{Reactions}
 (3)  (3)  (3)  (4)  (2)  (2) Komodo (3) 

[02-Sep-18 05:19 PM] Alright#0419 (pinned)
`./komodod -ac_cc=1 -ac_name=ORACLE -addressindex=1 -spentindex=1 -ac_supply=1000 -ac_reward=10000000000000 -addnode=195.201.20.230 -addnode=195.201.137.5`
build from FSM branch

[02-Sep-18 05:19 PM] Alright#0419
Pinned a message.

[02-Sep-18 05:19 PM] Alright#0419
Pinned a message.

[02-Sep-18 05:22 PM] jl777c#5810
there will definitely be bugs with oracles, as I didnt bother to test it at all

[02-Sep-18 05:22 PM] jl777c#5810
and no datapost will work as validation is disabled still, but all the other rpc calls could actually work

[02-Sep-18 05:32 PM] Alright#0419
are the vins/vouts for different txs documented somewhere?

[02-Sep-18 05:33 PM] SHossain#0007
i'll update the testplan in few hours

[02-Sep-18 05:35 PM] TonyL#3577
@Alright As I remember it's documented as commentaries to CCs smarts code

[02-Sep-18 05:35 PM] Alright#0419
yea I see the CCOracle file, but there isn't much in it

[02-Sep-18 05:36 PM] Alright#0419
https://github.com/jl777/komodo/blob/FSM/src/cc/oracles.cpp

{Embed}
https://github.com/jl777/komodo/blob/FSM/src/cc/oracles.cpp
jl777/komodo
Komodo. Contribute to jl777/komodo development by creating an account on GitHub.
https://avatars2.githubusercontent.com/u/5962559?s=400&v=4

[02-Sep-18 05:36 PM] Alright#0419
ahh looking in the wrong place 

[02-Sep-18 05:37 PM] jl777c#5810
oracles CC is less than 500 lines so far

[02-Sep-18 05:37 PM] jl777c#5810
but it is quite simple so i doubt it will need much more

[02-Sep-18 05:38 PM] jl777c#5810
it is like a jigsaw puzzle to define the rpc calls for the second set of CC contracts

[02-Sep-18 06:02 PM] Alright#0419
```
./komodo-cli -ac_name=ORACLE oraclesdata 9d353ee9f6f729c3f383b0bed2c2bb9e829c4b44ae52141844bae5c1166455bf FFFFFFFFFFFFFFFFFFFFFFFFF
{
  "result": "error",
  "error": "couldnt publish data with oracle txid"
}
```
```
datafee 0.00000000 is illegal
```

[02-Sep-18 06:03 PM] Alright#0419
what is the "format" for oraclescreate

[02-Sep-18 06:06 PM] Alright#0419
did an oraclecreate an it has an additional vout than what the doc specifies 
```
  "vout": [
    {
      "value": 0.00010000,
      "valueSat": 10000,
      "n": 0,
      "scriptPubKey": {
        "asm": "038c1d42db6a45a57eccb8981b078fb7857b9b496293fe299d2b8d120ac5b5691a OP_CHECKSIG",
        "hex": "21038c1d42db6a45a57eccb8981b078fb7857b9b496293fe299d2b8d120ac5b5691aac",
        "reqSigs": 1,
        "type": "pubkey",
        "addresses": [
          "RHkFKzn1csxA3fWzAsxsLWohoCgBbirXb5"
        ]
      }
    },
    {
      "value": 1000.04284175,
      "valueSat": 100004284175,
      "n": 1,
      "scriptPubKey": {
        "asm": "022dd04a2f452838f8c047e6260e798c67559e4e73e93b0794340075fb4ed6204d OP_CHECKSIG",
        "hex": "21022dd04a2f452838f8c047e6260e798c67559e4e73e93b0794340075fb4ed6204dac",
        "reqSigs": 1,
        "type": "pubkey",
        "addresses": [
          "RKh32vqEgmGrK68iTXAo1ey5yyYLbnPeZ1"
        ]
      }
    },
    {
      "value": 0.00000000,
      "valueSat": 0,
      "n": 2,
      "scriptPubKey": {
        "asm": "OP_RETURN ec4307416c7269676874026f6b05776861742e",
        "hex": "6a13ec4307416c7269676874026f6b05776861742e",
        "type": "nulldata"
      }
    }
  ]
```

[02-Sep-18 06:09 PM] Alright#0419
sent way too many coins to the marker address

[02-Sep-18 06:09 PM] jl777c#5810
change output

[02-Sep-18 06:10 PM] Alright#0419
Oh sorry, that's not the marker addresss

[02-Sep-18 06:10 PM] Alright#0419
the change

[02-Sep-18 06:11 PM] Alright#0419
what is the `format` value for `oraclescreate`

[02-Sep-18 06:11 PM] jl777c#5810
updated docs

[02-Sep-18 06:11 PM] jl777c#5810
format is just a string for now, I havent bothered to define it yet as oraclesdata is not yet

[02-Sep-18 06:11 PM] jl777c#5810
just getting the basics in place first

[02-Sep-18 06:12 PM] Alright#0419
`./komodo-cli -ac_name=ORACLE oraclesdata 9d353ee9f6f729c3f383b0bed2c2bb9e829c4b44ae52141844bae5c1166455bf FFFFFFFFFFFFFFFFFFFFFFFFF` is this the proper format for oraclesdata?

[02-Sep-18 06:12 PM] jl777c#5810
format is just a string for now, I havent bothered to define it yet as oraclesdata is not yet

[02-Sep-18 06:13 PM] Alright#0419
So I created one, and now I'm trying to add data to it

[02-Sep-18 06:13 PM] jl777c#5810
oraclesdata is not yet

[02-Sep-18 06:13 PM] jl777c#5810
that means it wont work

[02-Sep-18 06:13 PM] Alright#0419
but i'm getting `datafee 0.00000000 is illegal`

